:020000040800F2
:1000000000C0012075070008BD070008BD070008F3
:10001000BD070008BD070008BD070008000000007C
:10002000000000000000000000000000BD07000804
:10003000BD07000800000000BD07000859080008BF
:10004000BD070008BD070008BD070008BD07000880
:10005000BD070008BD070008F508000813090008DF
:10006000310900084F0900086D090008BD070008A4
:10007000BD070008BD070008BD070008BD07000850
:10008000BD070008BD070008BD070008BD07000840
:10009000BD070008BD070008BD0700088B09000860
:1000A000BD070008BD070008BD070008BD07000820
:1000B000BD070008BD070008BD070008BD07000810
:1000C000BD070008BD070008BD070008BD07000800
:1000D000BD070008090B0008390B0008690B000870
:1000E000090A0008BD070008BD070008BD07000891
:1000F000BD070008BD070008BD070008BD070008D0
:10010000BD070008BD070008BD070008BD070008BF
:10011000990B0008C90B0008BD070008BD070008BF
:10012000BD070008BD070008BD070008BD0700089F
:10013000BD070008BD070008BD070008BD0700088F
:10014000BD070008BD070008BD070008BD0700087F
:10015000BD070008BD070008BD070008F90B00082F
:10016000BD070008BD070008BD070008BD0700085F
:10017000BD070008BD070008BD070008BD0700084F
:10018000BD070008BD070008BD070008BD0700083F
:10019000BD070008BD070008BD070008BD0700082F
:0C01A000BD070008BD070008BD070008EF
:1001AC0010B5054C237833B9044B13B10448AFF3A5
:1001BC0000800123237010BDD4000020000000003B
:1001CC00A819000808B5034B1BB103490348AFF34A
:1001DC00008008BD00000000D8000020A81900080D
:1001EC00034613F8012B002AFBD1181A013870476B
:1001FC000A4B10B50446186818B183690BB900F0A6
:10020C00E9FE132C07D8064850F83430013302D0DD
:10021C0000EBC40010BD0020FCE700BF7000002004
:10022C0000010020F8B5054600F076FE13240646C2
:10023C00002720463946ABBE044634602846F8BD3C
:10024C00431C01D1FFF7EEBF704730B585B0CDE947
:10025C0001010392062401AD20462946ABBE04469B
:10026C002046FFF7EDFF05B030BD70B50E461546C4
:10027C00FFF7BEFF044630B900F04EFE09230360C1
:10028C004FF0FF3070BD2A4631460068FFF7DDFFA6
:10029C00431C1FBF6368281A1B186360F2E7F7B58D
:1002AC000C461646FFF7A4FF054640B900F034FE95
:1002BC00092303604FF0FF34204603B0F0BD022E3B
:1002CC0003D900F029FE1623F3E7012E12D143685F
:1002DC00E418F6D42B680A26CDE900346F46304674
:1002EC003946ABBE06463046FFF7AAFF0028E1DBD5
:1002FC006C60E1E7022EEDD103680C2600936F468B
:10030C0030463946ABBE06463046FFF799FF431CD4
:10031C00D0D00444DEE7FFF7C2BF30B585B0CDE9DD
:10032C0001010392052401AD20462946ABBE0446CB
:10033C002046FFF785FF05B030BD70B50E4615465B
:10034C00FFF756FF044630B900F0E6FD09230360C1
:10035C004FF0FF3070BD2A4631460068FFF7DDFFD5
:10036C00021EF5DB6368A81A0344AA426360F1D14C
:10037C00BDE870400020FFF755BF37B5022401904F
:10038C0001AD20462946ABBE04462046FFF758FF78
:10039C0003B030BD38B50546FFF72AFF044630B927
:1003AC0000F0BAFD092303604FF0FF3038BD013D6A
:1003BC00012D09D8094B9A681B699A4204D14FF058
:1003CC00FF3303600020F1E72068FFF7D6FF002819
:1003DC00ECD14FF0FF332360E8E700BF00010020B1
:1003EC000D4B10B51968024609B90C4919606946DC
:1003FC00186802448A4206D809490A4C0968A14285
:10040C0008D08A4206D900F087FD0C2303604FF018
:10041C00FF3010BD1A60FCE7F0000020C86100201E
:10042C0000000020ADDEFECA70B50C46FFF7E0FE02
:10043C00064630B900F070FD092303604FF0FF3021
:10044C0070BD63680C2543F4005363604FF4806304
:10045C00636428463146ABBE05462846FFF7F0FEDE
:10046C00431C1CBF20610020EAE70B4610B500219D
:10047C0004465822184600F070FE01462046BDE89E
:10048C001040FFF7D1BF38B50D4604465822002165
:10049C00284600F062FE2046002100F011F8431CB3
:1004AC0004460BD06B68294643F401436B60FFF79D
:1004BC00BBFF05462046FFF76DFF2C46204638BD96
:1004CC002B4B2DE9F04381460E4600251F4697B075
:1004DC0053F83540611C37D00135142DF8D100F09C
:1004EC001BFD18234FF0FF3403603DE040F2016325
:1004FC00C6F30044B20748BF44F002041E4218BFC2
:10050C0044F00404330748BF24F00404484648BFB1
:10051C0044F00804CDF80090FFF762FECDE90140ED
:10052C00012420464146ABBE0446002C07DB0023C9
:10053C0047F8354007EBC5077B602C4614E0204696
:10054C00FFF770FE04460FE006F42063B3F5206F4E
:10055C00E846CBD141464846FFF795FF0130C5D060
:10056C0000F0DAFC11230360204617B0BDE8F083DD
:10057C00000100202DE9F743074688462948002151
:10058C001546FFF79DFF04462A460021384600F029
:10059C00E4FD631C15D02046FFF72AFE0C2681468D
:1005AC0030464946ABBE06463046FFF749FE0328A7
:1005BC0002DD0338A84208DC2046FFF7EBFE4FF0C3
:1005CC00FF34204603B0BDE8F083042220460DEB37
:1005DC000201FFF74AFE0328EEDD9DF80430532B91
:1005EC00EAD19DF80530482BE6D19DF80630462B14
:1005FC00E2D19DF80730422BDED101224146204644
:10060C00FFF74DFE0028D7DB2A4639462046FFF778
:10061C002CFE05462046FFF7BDFE2846FFF710FED0
:10062C000446CEE71119000837B500210122094D07
:10063C00094C01A829602260FFF79CFF002807DD08
:10064C009DF8043003F0010203F002032A602360DA
:10065C0003B030BD040000200800002010B5044C8D
:10066C002268002A01DAFFF7DFFF206810BD00BF07
:10067C00080000202DE9F04F03230024DFF8AC9094
:10068C0085B0CDF804900DF1040803930125029474
:10069C0028464146ABBE0546204A23464FF0FF3163
:1006AC0014461F4E356042F833100133142BFAD127
:1006BC00FFF7D4FF1B4DD0B14FF0030A0423CDF844
:1006CC0004900127CDF80CA0029338464146ABBEEE
:1006DC008346154BCDF80490C3F800B00823CDF831
:1006EC000CA0029338464146ABBE07462F602B68E0
:1006FC00013302BF0C4B1B682B6033680026236050
:10070C006660FFF7ABFF30B1074B1B68C4E90236DC
:10071C002B68C4E9043605B0BDE8F08F0001002059
:10072C00F8000020F4000020FC000020271900082D
:10073C0070B5FFF75DFD0925044620B900F0ECFB10
:10074C000560204670BD28462146ABBE0446012CF0
:10075C00F7D000F0E1FB002406461325284621467D
:10076C00ABBE05463560ECE70C4D0D4C03E02B6839
:10077C002360043504340B4B9C42F8D10A4C02E044
:10078C00002323600434094B9C42F9D100F01CFB7C
:10079C0000F0BCFC00F042FAFEE700BFB019000804
:1007AC0000000020D4000020D4000020C8610020EC
:1007BC00FEE7000080B483B000AF03463960FB71E4
:1007CC0097F90730002B0BDA3B68DAB20C49FB794E
:1007DC0003F00F03043B1201D2B20B441A7609E06A
:1007EC003B68DAB2074997F907301201D2B20B44D1
:1007FC0083F8002300BF0C37BD4680BC704700BF98
:10080C0000ED00E000E100E080B582B000AF786060
:10081C007B68013BB3F1807F01D301230FE00A4ACF
:10082C007B68013B53600F214FF0FF30FFF7C2FF95
:10083C00054B00229A60044B07221A6000231846CD
:10084C000837BD4680BD00BF10E000E080B500AFAA
:10085C00084B1B680133074A1360074B1B68002BBE
:10086C0004D0054B1B68013B034A1360AFF30080B7
:10087C0000BF80BDA0010020A401002080B500AF06
:10088C00144B1B78002B22D1012000F029FA00BF59
:10089C0000F038FA0346002BFAD00F4B1B680F4AB6
:1008AC00A2FB03239B091846FFF7AEFF0346002B60
:1008BC0000D0FEE7084B1B689B09094AA2FB0323E7
:1008CC009B0A084A1360034B01221A7000E000BF18
:1008DC0080BD00BFA80100206C000020D34D621029
:1008EC0017916502B401002080B500AF012000F023
:1008FC00CFF90346002B04D0012000F0E3F9AFF34D
:10090C00008000BF80BD80B500AF022000F0C0F9B0
:10091C000346002B04D0022000F0D4F9AFF3008082
:10092C0000BF80BD80B500AF042000F0B1F90346D4
:10093C00002B04D0042000F0C5F9AFF3008000BFF9
:10094C0080BD80B500AF082000F0A2F90346002B53
:10095C0004D0082000F0B6F9AFF3008000BF80BDD2
:10096C0080B500AF102000F093F90346002B04D0A3
:10097C00102000F0A7F9AFF3008000BF80BD80B558
:10098C0000AF202000F084F90346002B04D0202077
:10099C0000F098F9AFF30080402000F079F903469D
:1009AC00002B04D0402000F08DF9AFF300808020A4
:1009BC0000F06EF90346002B04D0802000F082F981
:1009CC00AFF300804FF4807000F062F90346002B07
:1009DC0005D04FF4807000F075F9AFF300804FF440
:1009EC00007000F055F90346002B05D04FF4007051
:1009FC0000F068F9AFF3008000BF80BD80B500AF98
:100A0C004FF4806000F044F90346002B05D04FF4FE
:100A1C00806000F057F9AFF300804FF4006000F0F5
:100A2C0037F90346002B05D04FF4006000F04AF96B
:100A3C00AFF300804FF4805000F02AF90346002BEE
:100A4C0005D04FF4805000F03DF9AFF300804FF427
:100A5C00005000F01DF90346002B05D04FF4005058
:100A6C0000F030F9AFF300804FF4804000F010F943
:100A7C000346002B05D04FF4804000F023F9AFF370
:100A8C0000804FF4004000F003F90346002B05D022
:100A9C004FF4004000F016F9AFF3008000BF80BDAA
:100AAC0080B483B000AF78600B46FB707B68DA884B
:100ABC007B689B889A421BD27B681A897B689B88CF
:100ACC009A4202D17B6800221A817B681B687A6883
:100ADC0012891344FA781A707B681B8901339AB215
:100AEC007B681A817B68DB8801339AB27B68DA8079
:100AFC0000BF0C37BD4680BC7047000080B500AF0E
:100B0C00084B1B889BB203F02003002B07D0054B2E
:100B1C009B889BB2DBB219460348FFF7C1FF00BFAD
:100B2C0080BD00BF001001400C00002080B500AF5C
:100B3C00084B1B889BB203F02003002B07D0054BFE
:100B4C009B889BB2DBB219460348FFF7A9FF00BF95
:100B5C0080BD00BF004400401C00002080B500AFE9
:100B6C00084B1B889BB203F02003002B07D0054BCE
:100B7C009B889BB2DBB219460348FFF791FF00BF7D
:100B8C0080BD00BF004800402C00002080B500AFA5
:100B9C00084B1B889BB203F02003002B07D0054B9E
:100BAC009B889BB2DBB219460348FFF779FF00BF65
:100BBC0080BD00BF004C00403C00002080B500AF61
:100BCC00084B1B889BB203F02003002B07D0054B6E
:100BDC009B889BB2DBB219460348FFF761FF00BF4D
:100BEC0080BD00BF005000404C00002080B500AF1D
:100BFC00084B1B889BB203F02003002B07D0054B3E
:100C0C009B889BB2DBB219460348FFF749FF00BF34
:100C1C0080BD00BF001401405C00002080B500AF17
:100C2C0000F0D2F800F022F8FFF724FD034800F0A2
:100C3C00B1FB4FF47A7000F01FF8F7E70C190008BD
:100C4C0080B485B000AF7860074B1B68FB6000BFB9
:100C5C00054B1A68FB68D31A7A689A42F8D800BF19
:100C6C001437BD4680BC7047A001002080B500AF92
:100C7C00FFF704FE00BF80BD80B582B000AF786086
:100C8C007868FFF7DDFF00BF0837BD4680BD000068
:100C9C0080B485B000AF78600023FB73084B5A69B1
:100CAC007B681340002B02D00123FB7301E000236F
:100CBC00FB73FB7B18461437BD4680BC704700BFE6
:100CCC00003C014080B483B000AF7860034A7B687D
:100CDC00536100BF0C37BD4680BC7047003C0140DF
:100CEC0080B483B000AF0346FB71054B00221A7031
:100CFC00034AFB79137000BF0C37BD4680BC7047AC
:100D0C000238024080B582B000AF00233B60002364
:100D1C00FB710023BB71312000F01CF80346BB7142
:100D2C003B6801333B603B68B3F5A04F02D0BB7905
:100D3C00002BF0D0312000F00DF80346002B02D030
:100D4C000123FB7101E00023FB71FB791846083786
:100D5C00BD4680BD80B487B000AF0346FB71002355
:100D6C00FB6000237B610023FB74FB795B09DBB226
:100D7C00FB60FB68012B03D1124B1B687B6109E004
:100D8C00FB68022B03D10F4B1B6F7B6102E00D4BF9
:100D9C005B6F7B61FB7903F01F03FB607A69FB6877
:100DAC0022FA03F303F00103002B02D00123FB749E
:100DBC0001E00023FB74FB7C18461C37BD4680BC4D
:100DCC00704700BF0038024080B500AF124B1B6863
:100DDC00114A43F0010313600F4B00229A600E4B33
:100DEC001B680D4A23F0847323F4803313600A4B81
:100DFC000A4A5A60084B1B68074A23F48023136085
:100E0C00054B0022DA6000F00DF8054B4FF0006244
:100E1C009A6000BF80BD00BF003802401030002433
:100E2C0000ED00E080B483B000AF00237B600023B2
:100E3C003B60354B1B68344A43F480331360324BB0
:100E4C001B6803F400333B607B6801337B603B68B9
:100E5C00002B03D17B68B3F5A04FF0D12A4B1B6854
:100E6C0003F40033002B02D001233B6001E000238C
:100E7C003B603B68012B42D1234B1B6C224A43F055
:100E8C0080531364214B1B68204A43F44043136086
:100E9C001D4B1D4A9B6893601B4B9B681A4A43F47D
:100EAC0000439360184B9B68174A43F4A05393601C
:100EBC00154B174A5A60144B1B68134A43F0807346
:100ECC00136000BF104B1B6803F00073002BF9D0AC
:100EDC00104B40F205721A600B4B9B680A4A23F0C8
:100EEC0003039360084B9B68074A43F0020393602B
:100EFC0000BF054B9B6803F00C03082BF9D100BF16
:100F0C000C37BD4680BC7047003802400070004072
:100F1C0019544007003C0240014B1868704700BF51
:100F2C0070000020002310B50446C0E90033836034
:100F3C0081814366C281C0E904338361194608226A
:100F4C005C3000F00AF9054B24626362044BA36227
:100F5C00044BE362044B236310BD00BFD1130008A4
:100F6C00F31300082B1400084F140008014900F07B
:100F7C00AFB800BF2917000870B568254A1E554345
:100F8C000E4605F1740100F03DF9044640B1002114
:100F9C00C0E900160C30A06005F1680200F0DDF825
:100FAC00204670BD014800F0D6B800BFC0610020DB
:100FBC00014800F0D1B800BFC0610020014800F02A
:100FCC00CAB800BFBB610020014800F0C5B800BF23
:100FDC00BB61002010B50446FFF7F0FFA3691BB1FD
:100FEC00BDE81040FFF7F0BFC4E912332365134B83
:100FFC00134A1B68A262A34208BF0123204608BF04
:10100C00A36100F01FF86060204600F01BF8A060A0
:10101C00204600F017F80022E06004216068FFF71A
:10102C0081FF01220921A068FFF77CFF0222122117
:10103C00E068FFF777FF0123A361D1E78C19000863
:10104C00790F0008F8B50746FFF7ACFF1E4B1E687A
:10105C00B36913B93046FFF7BDFF4836D6E9013402
:10106C00013B03D533680BB33668F7E7B4F90C5082
:10107C00D5B9164B04F15800E360656600F06AF8C8
:10108C00FFF796FF2560C4E90155C4E90455A56135
:10109C000822294604F15C0000F05FF8C4E90D5504
:1010AC00C4E912552046F8BD6834D9E70421384606
:1010BC00FFF762FF044630600028D5D1FFF778FFB8
:1010CC000C233B60EEE700BF8C1900080100FFFF0A
:1010DC002DE9F84380468946002600F1480414B9EE
:1010EC003046BDE8F883D4E90175013F01D5246889
:1010FC00F5E7AB89012B07D9B5F90E30013303D0D5
:10110C0029464046C84706436835EEE770B50026C9
:10111C000C4D0D4C641BA410A64209D100F032FCFE
:10112C0000260A4D0A4C641BA410A64205D170BDC2
:10113C0055F8043B98470136EEE755F8043B9847C1
:10114C000136F2E7A8190008A8190008A819000828
:10115C00AC1900087047704770470346024493422D
:10116C0000D1704703F8011BF9E7000038B50546BC
:10117C00002943D051F8043C0C1F002BB8BFE418D5
:10118C0000F07EFB1E4A1368104633B9636014608E
:10119C002846BDE8384000F079BBA3420BD9216842
:1011AC006218934201BF1A685B6852182260636030
:1011BC000460EDE713465A680AB1A242FAD91968DD
:1011CC005818A0420BD1206801445818824219606B
:1011DC00DED110685268014419605A60D8E702D910
:1011EC000C232B60D4E7206821188A4201BF1168B8
:1011FC0052680918216062605C60C9E738BD00BFA5
:10120C00AC010020F8B5CD1C25F0030508350C2DDC
:10121C0038BF0C25002D064601DBA94203D90C234F
:10122C0033600020F8BD00F02BFB21490A681446FE
:10123C009CB9204F3B6823B92146304600F0B2F8E8
:10124C0038602946304600F0ADF8431C23D10C23FE
:10125C003046336000F01AFBE3E723685B1B17D4BE
:10126C000B2B03D923601C44256004E06368A24265
:10127C000CBF0B605360304600F008FB04F10B0010
:10128C00231D20F00700C21ACCD01B1AA350C9E7AB
:10129C0022466468CCE7C41C24F00304A042E3D0CB
:1012AC00211A304600F07EF80130DDD1CFE700BFC7
:1012BC00AC010020B001002070B50E46054618B1F7
:1012CC0083690BB9FFF786FEAB69AC6813B9284686
:1012DC00FFF780FE2C4B9C4220D16C68636EDB07C1
:1012EC0005D4A389980502D4A06DFFF734FFA38918
:1012FC0019071DD52369DBB1013EA36816F8011F40
:10130C00013BA36039BB002B38DA22460A21284660
:10131C0000F09CF8013011D00A2511E01B4B9C42C7
:10132C0001D1AC68DAE71A4B9C4208BFEC68D5E7F0
:10133C002146284600F0EEF80028DDD04FF0FF35AE
:10134C00636EDA0705D4A3899B0502D4A06DFFF761
:10135C0003FF284670BD002B04DAA2699A4206DC12
:10136C000A2904D023685A1C22601970C5E722464A
:10137C00284600F06BF80130BFD1DFE70A2523685F
:10138C005A1C22601D70DBE74C1900086C19000810
:10139C002C190008024B01461868FFF78DBF00BFDF
:1013AC007000002038B50023054C05460846236024
:1013BC00FFF716F8431C02D1236803B12B6038BD2C
:1013CC00C461002010B50C46B1F90E1000F064FA9F
:1013DC000028ABBF636DA3891B1823F48053ACBFEB
:1013EC006365A38110BD2DE9F0411F468B8905462D
:1013FC00DB050C46164605D502230022B1F90E106A
:10140C0000F0C8F9A389324623F48053A381B4F9C0
:10141C000E103B462846BDE8F04100F069B810B507
:10142C000C46B1F90E1000F0B5F9431CA38915BF99
:10143C00606523F4805343F48053A38118BFA381C8
:10144C0010BDB1F90E1000F0D3B80000F8B50E467F
:10145C001446054618B183690BB9FFF7BBFD214B48
:10146C009C422BD16C68A369A360A3891A072FD562
:10147C0023696BB323692068F6B2C01A63693746D7
:10148C00834204DC2146284600F048F930BBA368AF
:10149C000130013BA36023685A1C22601E706369F3
:1014AC00834204D0A389DB0706D50A2E04D121463A
:1014BC00284600F033F988B93846F8BD0A4B9C42EF
:1014CC0001D1AC68CFE7094B9C4208BFEC68CAE776
:1014DC002146284600F01EF80028CBD04FF0FF37ED
:1014EC00EAE700BF4C1900086C1900082C19000819
:1014FC0038B50546084611460022054C22601A46AE
:10150C00FEF71BFF431C02D1236803B12B6038BDCF
:10151C00C4610020324B70B51D6806460C4625B1DF
:10152C00AB6913B92846FFF755FD2E4B9C420FD1E2
:10153C006C68B4F90C309AB215072CD4D00611D4BF
:10154C000922326043F04003A3814FF0FF303EE0AC
:10155C00254B9C4201D1AC68EBE7244B9C4208BF65
:10156C00EC68E6E7510712D5616B41B104F1440315
:10157C00994202D03046FFF7F9FD00236363A3893B
:10158C0023F02403A3810023636023692360A389D0
:10159C0043F00803A38123694BB9A38903F4207397
:1015AC00B3F5007F03D02146304600F029F9A2891B
:1015BC0012F001030CD00023A36063695B42A361AA
:1015CC00236953B9B4F90C3013F08000BAD170BD53
:1015DC00920758BF6369A360F2E70020F7E700BFEA
:1015EC00700000204C1900086C1900082C19000818
:1015FC0038B50023054C054608462360FEF7CAFEA5
:10160C00431C02D1236803B12B6038BDC461002098
:10161C008A892DE9F041054610070C4658D44B68D1
:10162C00002B05DC0B6C002B02DC0020BDE8F081EC
:10163C00E66A002EF9D0002312F480522F682B603A
:10164C0032D0606DA3895A0705D56368C01A636BE5
:10165C000BB1236CC01A00230246E66A216A2846A5
:10166C00B047431CA38906D129681D2949D82A4AA9
:10167C00CA40D60745D5002262602269D90422608F
:10168C0004D5421C01D12B6803B96065616B2F60D6
:10169C000029CAD004F14403994202D02846FFF72E
:1016AC0065FD00206063C1E7216A01232846B0472D
:1016BC00411CC7D12B68002BC4D01D2B01D0162B7D
:1016CC0001D12F60B1E7A38943F04003A381ADE7BB
:1016DC000F69002FA9D0930718BF00230E6808BF0D
:1016EC004B69A6EB07080F608B60B8F1000F9CDD0F
:1016FC0043463A46216A2846A66AB047002806DCCB
:10170C00A38943F04003A3814FF0FF308EE70744D9
:10171C00A8EB0008E9E700BF0100402038B50B69D1
:10172C0005460C4613B90025284638BD18B1836907
:10173C000BB9FFF74FFC144B9C421BD16C68B4F9EE
:10174C000C30002BEFD0626ED00704D4990502D474
:10175C00A06DFFF700FD28462146FFF759FF636E89
:10176C000546DA07E0D4A3899B05DDD4A06DFFF70D
:10177C00F3FCD9E7054B9C4201D1AC68DFE7044B85
:10178C009C4208BFEC68DAE74C1900086C19000899
:10179C002C19000838B50546084611460022054CA0
:1017AC0022601A46FEF7B7FD431C02D1236803B131
:1017BC002B6038BDC461002070B50E46B1F90E1017
:1017CC0096B0002914461D4607DA00232B60B38916
:1017DC001A0610D44FF480630EE06A4600F06EF8DF
:1017EC000028F2DB019A02F47042A2F500535A422F
:1017FC005A412A60EEE740230020236016B070BDEA
:10180C008B8973B59D0706460C4607D504F1470333
:10181C00236023610123636102B070BD01AB6A4692
:10182C00FFF7CAFF009905463046FFF7EBFC48B9B5
:10183C00B4F90C309A05EFD423F0030343F0020300
:10184C00A381E3E70D4BB362A389206043F08003CF
:10185C00A381009B20616361019B5BB1B4F90E1005
:10186C00304600F03DF828B1A38923F0030343F080
:10187C000103A381A3891D43A581CDE7790F00083E
:10188C000148FFF768BC00BFBC6100200148FFF7AE
:10189C0063BC00BFBC61002038B505460846114644
:1018AC000022054C22601A46FEF7DFFC431C02D1D5
:1018BC00236803B12B6038BDC461002038B5002308
:1018CC00064C0546084611462360FEF7CEFD431C28
:1018DC0002D1236803B12B6038BD00BFC461002066
:1018EC0038B50023054C054608462360FEF720FF5B
:1018FC00431C02D1236803B12B6038BDC4610020A6
:10190C0059454148003A73656D69686F7374696E27
:10191C00672D6665617475726573003A74740000A6
:10192C0000000000000000000000000000000000AB
:10193C00000000000000000000000000000000009B
:10194C00000000000000000000000000000000008B
:10195C00000000000000000000000000000000007B
:10196C00000000000000000000000000000000006B
:10197C00000000000000000000000000000000005B
:10198C0074000020F8B500BFF8BC08BC9E46704738
:0C199C00F8B500BFF8BC08BC9E467047C0
:0419A800D101000861
:0419AC00AD01000881
:1019B000ADDEFECAFFFFFFFFFFFFFFFFB8410020C3
:1019C0000010000000000000000A0000B8310020F4
:1019D0000010000000000000000A0000B8210020F4
:1019E0000010000000000000000A0000B8510020B4
:1019F0000010000000000000000A0000B8010020F4
:101A00000010000000000000000A0000B8110020D3
:101A10000010000000000000000A0000007A030A25
:101A200074000020000000004C1900086C19000828
:101A30002C19000800000000000000000000000059
:101A40000000000000000000000000000000000096
:101A50000000000000000000000000000000000086
:101A60000000000000000000000000000000000076
:101A70000000000000000000000000000000000066
:041A80000000000062
:04000005080001AC42
:00000001FF
